{
  "address": "0x828a49F2C25641Dc8525dAA6aF487F8528c8B576",
  "abi": [
    {
      "inputs": [
        {
          "internalType": "address",
          "name": "priceFeedAddress",
          "type": "address"
        }
      ],
      "stateMutability": "nonpayable",
      "type": "constructor"
    },
    {
      "inputs": [],
      "name": "FundMe__NotOwner",
      "type": "error"
    },
    {
      "stateMutability": "payable",
      "type": "fallback"
    },
    {
      "inputs": [],
      "name": "MINIMUM_USD",
      "outputs": [
        {
          "internalType": "uint256",
          "name": "",
          "type": "uint256"
        }
      ],
      "stateMutability": "view",
      "type": "function"
    },
    {
      "inputs": [],
      "name": "cheaperWithdraw",
      "outputs": [],
      "stateMutability": "nonpayable",
      "type": "function"
    },
    {
      "inputs": [],
      "name": "fund",
      "outputs": [],
      "stateMutability": "payable",
      "type": "function"
    },
    {
      "inputs": [],
      "name": "getVersion",
      "outputs": [
        {
          "internalType": "uint256",
          "name": "",
          "type": "uint256"
        }
      ],
      "stateMutability": "view",
      "type": "function"
    },
    {
      "inputs": [],
      "name": "i_owner",
      "outputs": [
        {
          "internalType": "address",
          "name": "",
          "type": "address"
        }
      ],
      "stateMutability": "view",
      "type": "function"
    },
    {
      "inputs": [
        {
          "internalType": "address",
          "name": "",
          "type": "address"
        }
      ],
      "name": "s_addressToAmountFunded",
      "outputs": [
        {
          "internalType": "uint256",
          "name": "",
          "type": "uint256"
        }
      ],
      "stateMutability": "view",
      "type": "function"
    },
    {
      "inputs": [
        {
          "internalType": "uint256",
          "name": "",
          "type": "uint256"
        }
      ],
      "name": "s_funders",
      "outputs": [
        {
          "internalType": "address",
          "name": "",
          "type": "address"
        }
      ],
      "stateMutability": "view",
      "type": "function"
    },
    {
      "inputs": [],
      "name": "s_priceFeed",
      "outputs": [
        {
          "internalType": "contract AggregatorV3Interface",
          "name": "",
          "type": "address"
        }
      ],
      "stateMutability": "view",
      "type": "function"
    },
    {
      "inputs": [],
      "name": "withdraw",
      "outputs": [],
      "stateMutability": "nonpayable",
      "type": "function"
    },
    {
      "stateMutability": "payable",
      "type": "receive"
    }
  ],
  "transactionHash": "0x804940b9d2dde8692705e14a574a60592c3771fd806ec73b0b8d0a57ced9c3ef",
  "args": [
    "0x694AA1769357215DE4FAC081bf1f309aDC325306"
  ],
  "numDeployments": 2,
  "solcInputHash": "6d7da313e1ce10e71f517387f8aef8ba",
  "bytecode": "0x60806040523480156200001157600080fd5b50604051620016213803806200162183398181016040528101906200003791906200012a565b33600260006101000a81548173ffffffffffffffffffffffffffffffffffffffff021916908373ffffffffffffffffffffffffffffffffffffffff16021790555080600360006101000a81548173ffffffffffffffffffffffffffffffffffffffff021916908373ffffffffffffffffffffffffffffffffffffffff160217905550506200015c565b600080fd5b600073ffffffffffffffffffffffffffffffffffffffff82169050919050565b6000620000f282620000c5565b9050919050565b6200010481620000e5565b81146200011057600080fd5b50565b6000815190506200012481620000f9565b92915050565b600060208284031215620001435762000142620000c0565b5b6000620001538482850162000113565b91505092915050565b6114b5806200016c6000396000f3fe60806040526004361061008a5760003560e01c806354861af71161005957806354861af71461014d5780636b69a5921461018a578063b60d4288146101b5578063be2693f0146101bf578063dba6335f146101d657610099565b80630d8e6e2c146100a35780630ec3b027146100ce5780631bf6132d146100f95780633ccfd60b1461013657610099565b3661009957610097610201565b005b6100a1610201565b005b3480156100af57600080fd5b506100b86103b1565b6040516100c59190610c9b565b60405180910390f35b3480156100da57600080fd5b506100e3610458565b6040516100f09190610d35565b60405180910390f35b34801561010557600080fd5b50610120600480360381019061011b9190610d93565b61047e565b60405161012d9190610c9b565b60405180910390f35b34801561014257600080fd5b5061014b610496565b005b34801561015957600080fd5b50610174600480360381019061016f9190610dec565b6106fa565b6040516101819190610e28565b60405180910390f35b34801561019657600080fd5b5061019f610739565b6040516101ac9190610c9b565b60405180910390f35b6101bd610201565b005b3480156101cb57600080fd5b506101d4610746565b005b3480156101e257600080fd5b506101eb610a0e565b6040516101f89190610e28565b60405180910390f35b6802b5e3af16b1880000610240600360009054906101000a900473ffffffffffffffffffffffffffffffffffffffff1634610a3490919063ffffffff16565b1015610281576040517f08c379a000000000000000000000000000000000000000000000000000000000815260040161027890610ea0565b60405180910390fd5b6102f76040518060400160405280600c81526020017f46756e64696e672066726f6d0000000000000000000000000000000000000000815250336040518060400160405280600681526020017f56616c75653a000000000000000000000000000000000000000000000000000081525034610a70565b346000803373ffffffffffffffffffffffffffffffffffffffff1673ffffffffffffffffffffffffffffffffffffffff16815260200190815260200160002060008282546103459190610eef565b925050819055506001339080600181540180825580915050600190039060005260206000200160009091909190916101000a81548173ffffffffffffffffffffffffffffffffffffffff021916908373ffffffffffffffffffffffffffffffffffffffff160217905550565b6000600360009054906101000a900473ffffffffffffffffffffffffffffffffffffffff1673ffffffffffffffffffffffffffffffffffffffff166354fd4d506040518163ffffffff1660e01b815260040160206040518083038186803b15801561041b57600080fd5b505afa15801561042f573d6000803e3d6000fd5b505050506040513d601f19601f820116820180604052508101906104539190610f5a565b905090565b600360009054906101000a900473ffffffffffffffffffffffffffffffffffffffff1681565b60006020528060005260406000206000915090505481565b600260009054906101000a900473ffffffffffffffffffffffffffffffffffffffff1673ffffffffffffffffffffffffffffffffffffffff163373ffffffffffffffffffffffffffffffffffffffff161461051d576040517f579610db00000000000000000000000000000000000000000000000000000000815260040160405180910390fd5b60005b6001805490508110156105c85760006001828154811061054357610542610f87565b5b9060005260206000200160009054906101000a900473ffffffffffffffffffffffffffffffffffffffff16905060008060008373ffffffffffffffffffffffffffffffffffffffff1673ffffffffffffffffffffffffffffffffffffffff168152602001908152602001600020819055505080806105c090610fb6565b915050610520565b50600067ffffffffffffffff8111156105e4576105e3610fff565b5b6040519080825280602002602001820160405280156106125781602001602082028036833780820191505090505b5060019080519060200190610628929190610bdb565b506000600260009054906101000a900473ffffffffffffffffffffffffffffffffffffffff1673ffffffffffffffffffffffffffffffffffffffff16476040516106719061105f565b60006040518083038185875af1925050503d80600081146106ae576040519150601f19603f3d011682016040523d82523d6000602084013e6106b3565b606091505b50509050806106f7576040517f08c379a00000000000000000000000000000000000000000000000000000000081526004016106ee906110c0565b60405180910390fd5b50565b6001818154811061070a57600080fd5b906000526020600020016000915054906101000a900473ffffffffffffffffffffffffffffffffffffffff1681565b6802b5e3af16b188000081565b600260009054906101000a900473ffffffffffffffffffffffffffffffffffffffff1673ffffffffffffffffffffffffffffffffffffffff163373ffffffffffffffffffffffffffffffffffffffff16146107cd576040517f579610db00000000000000000000000000000000000000000000000000000000815260040160405180910390fd5b6000600180548060200260200160405190810160405280929190818152602001828054801561085157602002820191906000526020600020905b8160009054906101000a900473ffffffffffffffffffffffffffffffffffffffff1673ffffffffffffffffffffffffffffffffffffffff1681526020019060010190808311610807575b5050505050905060005b81518110156108db57600082828151811061087957610878610f87565b5b6020026020010151905060008060008373ffffffffffffffffffffffffffffffffffffffff1673ffffffffffffffffffffffffffffffffffffffff168152602001908152602001600020819055505080806108d390610fb6565b91505061085b565b50600067ffffffffffffffff8111156108f7576108f6610fff565b5b6040519080825280602002602001820160405280156109255781602001602082028036833780820191505090505b506001908051906020019061093b929190610bdb565b506000600260009054906101000a900473ffffffffffffffffffffffffffffffffffffffff1673ffffffffffffffffffffffffffffffffffffffff16476040516109849061105f565b60006040518083038185875af1925050503d80600081146109c1576040519150601f19603f3d011682016040523d82523d6000602084013e6109c6565b606091505b5050905080610a0a576040517f08c379a0000000000000000000000000000000000000000000000000000000008152600401610a01906110c0565b60405180910390fd5b5050565b600260009054906101000a900473ffffffffffffffffffffffffffffffffffffffff1681565b600080610a4083610b12565b90506000670de0b6b3a76400008583610a5991906110e0565b610a639190611169565b9050809250505092915050565b610b0c84848484604051602401610a8a9493929190611222565b6040516020818303038152906040527f91d1112e000000000000000000000000000000000000000000000000000000007bffffffffffffffffffffffffffffffffffffffffffffffffffffffff19166020820180517bffffffffffffffffffffffffffffffffffffffffffffffffffffffff8381831617835250505050610bb2565b50505050565b6000808273ffffffffffffffffffffffffffffffffffffffff1663feaf968c6040518163ffffffff1660e01b815260040160a06040518083038186803b158015610b5b57600080fd5b505afa158015610b6f573d6000803e3d6000fd5b505050506040513d601f19601f82011682018060405250810190610b9391906112ed565b5050509150506402540be40081610baa9190611368565b915050919050565b60008151905060006a636f6e736f6c652e6c6f679050602083016000808483855afa5050505050565b828054828255906000526020600020908101928215610c54579160200282015b82811115610c535782518260006101000a81548173ffffffffffffffffffffffffffffffffffffffff021916908373ffffffffffffffffffffffffffffffffffffffff16021790555091602001919060010190610bfb565b5b509050610c619190610c65565b5090565b5b80821115610c7e576000816000905550600101610c66565b5090565b6000819050919050565b610c9581610c82565b82525050565b6000602082019050610cb06000830184610c8c565b92915050565b600073ffffffffffffffffffffffffffffffffffffffff82169050919050565b6000819050919050565b6000610cfb610cf6610cf184610cb6565b610cd6565b610cb6565b9050919050565b6000610d0d82610ce0565b9050919050565b6000610d1f82610d02565b9050919050565b610d2f81610d14565b82525050565b6000602082019050610d4a6000830184610d26565b92915050565b600080fd5b6000610d6082610cb6565b9050919050565b610d7081610d55565b8114610d7b57600080fd5b50565b600081359050610d8d81610d67565b92915050565b600060208284031215610da957610da8610d50565b5b6000610db784828501610d7e565b91505092915050565b610dc981610c82565b8114610dd457600080fd5b50565b600081359050610de681610dc0565b92915050565b600060208284031215610e0257610e01610d50565b5b6000610e1084828501610dd7565b91505092915050565b610e2281610d55565b82525050565b6000602082019050610e3d6000830184610e19565b92915050565b600082825260208201905092915050565b7f596f75206e65656420746f207370656e64206d6f726520455448210000000000600082015250565b6000610e8a601b83610e43565b9150610e9582610e54565b602082019050919050565b60006020820190508181036000830152610eb981610e7d565b9050919050565b7f4e487b7100000000000000000000000000000000000000000000000000000000600052601160045260246000fd5b6000610efa82610c82565b9150610f0583610c82565b9250827fffffffffffffffffffffffffffffffffffffffffffffffffffffffffffffffff03821115610f3a57610f39610ec0565b5b828201905092915050565b600081519050610f5481610dc0565b92915050565b600060208284031215610f7057610f6f610d50565b5b6000610f7e84828501610f45565b91505092915050565b7f4e487b7100000000000000000000000000000000000000000000000000000000600052603260045260246000fd5b6000610fc182610c82565b91507fffffffffffffffffffffffffffffffffffffffffffffffffffffffffffffffff821415610ff457610ff3610ec0565b5b600182019050919050565b7f4e487b7100000000000000000000000000000000000000000000000000000000600052604160045260246000fd5b600081905092915050565b50565b600061104960008361102e565b915061105482611039565b600082019050919050565b600061106a8261103c565b9150819050919050565b7f43616c6c206661696c6564000000000000000000000000000000000000000000600082015250565b60006110aa600b83610e43565b91506110b582611074565b602082019050919050565b600060208201905081810360008301526110d98161109d565b9050919050565b60006110eb82610c82565b91506110f683610c82565b9250817fffffffffffffffffffffffffffffffffffffffffffffffffffffffffffffffff048311821515161561112f5761112e610ec0565b5b828202905092915050565b7f4e487b7100000000000000000000000000000000000000000000000000000000600052601260045260246000fd5b600061117482610c82565b915061117f83610c82565b92508261118f5761118e61113a565b5b828204905092915050565b600081519050919050565b60005b838110156111c35780820151818401526020810190506111a8565b838111156111d2576000848401525b50505050565b6000601f19601f8301169050919050565b60006111f48261119a565b6111fe8185610e43565b935061120e8185602086016111a5565b611217816111d8565b840191505092915050565b6000608082019050818103600083015261123c81876111e9565b905061124b6020830186610e19565b818103604083015261125d81856111e9565b905061126c6060830184610c8c565b95945050505050565b600069ffffffffffffffffffff82169050919050565b61129481611275565b811461129f57600080fd5b50565b6000815190506112b18161128b565b92915050565b6000819050919050565b6112ca816112b7565b81146112d557600080fd5b50565b6000815190506112e7816112c1565b92915050565b600080600080600060a0868803121561130957611308610d50565b5b6000611317888289016112a2565b9550506020611328888289016112d8565b945050604061133988828901610f45565b935050606061134a88828901610f45565b925050608061135b888289016112a2565b9150509295509295909350565b6000611373826112b7565b915061137e836112b7565b9250827f7fffffffffffffffffffffffffffffffffffffffffffffffffffffffffffffff04821160008413600084131616156113bd576113bc610ec0565b5b817f800000000000000000000000000000000000000000000000000000000000000005831260008412600084131616156113fa576113f9610ec0565b5b827f8000000000000000000000000000000000000000000000000000000000000000058212600084136000841216161561143757611436610ec0565b5b827f7fffffffffffffffffffffffffffffffffffffffffffffffffffffffffffffff058212600084126000841216161561147457611473610ec0565b5b82820290509291505056fea264697066735822122015856ac9d758f559d7a275dc406df10a47a47fa4324630e15e8932ff39a7e55f64736f6c63430008080033",
  "devdoc": {
    "author": "Roman Kyryliuk",
    "details": "This implements price feeds as our library",
    "kind": "dev",
    "methods": {},
    "title": "A contract for crowd founding",
    "version": 1
  },
  "userdoc": {
    "kind": "user",
    "methods": {},
    "notice": "This is my first smart contract",
    "version": 1
  },
  "storageLayout": {
    "storage": [
      {
        "astId": 60,
        "contract": "contracts/FundMe.sol:FundMe",
        "label": "s_addressToAmountFunded",
        "offset": 0,
        "slot": "0",
        "type": "t_mapping(t_address,t_uint256)"
      },
      {
        "astId": 63,
        "contract": "contracts/FundMe.sol:FundMe",
        "label": "s_funders",
        "offset": 0,
        "slot": "1",
        "type": "t_array(t_address)dyn_storage"
      },
      {
        "astId": 65,
        "contract": "contracts/FundMe.sol:FundMe",
        "label": "i_owner",
        "offset": 0,
        "slot": "2",
        "type": "t_address"
      },
      {
        "astId": 75,
        "contract": "contracts/FundMe.sol:FundMe",
        "label": "s_priceFeed",
        "offset": 0,
        "slot": "3",
        "type": "t_contract(AggregatorV3Interface)45"
      }
    ],
    "types": {
      "t_address": {
        "encoding": "inplace",
        "label": "address",
        "numberOfBytes": "20"
      },
      "t_array(t_address)dyn_storage": {
        "base": "t_address",
        "encoding": "dynamic_array",
        "label": "address[]",
        "numberOfBytes": "32"
      },
      "t_contract(AggregatorV3Interface)45": {
        "encoding": "inplace",
        "label": "contract AggregatorV3Interface",
        "numberOfBytes": "20"
      },
      "t_mapping(t_address,t_uint256)": {
        "encoding": "mapping",
        "key": "t_address",
        "label": "mapping(address => uint256)",
        "numberOfBytes": "32",
        "value": "t_uint256"
      },
      "t_uint256": {
        "encoding": "inplace",
        "label": "uint256",
        "numberOfBytes": "32"
      }
    }
  }
}